:020000040800F2
:1000000000000320D9260008392000083F200008FE
:10001000452000084B200008512000080000000087
:1000200000000000000000000000000011E80008CF
:10003000572000080000000061EA0008C9EA000833
:100040002927000829270008292700082927000850
:100050002927000829270008292700082927000840
:100060006520000873200008812000082927000867
:10007000A5200008292700082927000829270008AB
:10008000292700082927000829270008E12000085F
:10009000F5200008092100081D2100088F20000814
:1000A00029270008292700082927000829270008F0
:1000B00029270008292700082927000829270008E0
:1000C00029270008292700082927000829270008D0
:1000D000292700082927000829270008B920000837
:1000E00029270008292700082927000829270008B0
:1000F00029270008292700082927000829270008A0
:10010000292700082927000829270008292700088F
:10011000292700082927000829270008312100087D
:10012000292700082927000829270008292700086F
:100130002927000845210008292700082927000849
:10014000292700082927000829270008292700084F
:10015000292700082927000829270008292700083F
:10016000292700082927000829270008292700082F
:100170002927000829270008292700080000000077
:100180002927000829270008CD2000082927000872
:1001900029270008292700082927000829270008FF
:0C01A0002927000829270008292700084B
:1001B00010B5054C237833B9044B13B10448AFF3A1
:1001C00000800123237010BD0C02002000000000FD
:1001D000CCCD010808B5034B1BB103490348AFF36D
:1001E000008008BD0000000010020020CCCD0108F6
:1001F00001F0FF01102A2BDB10F0070F08D010F8D8
:10020000013B013A8B422DD010F0070F42B3F6D1DB
:10021000F0B441EA012141EA014122F007047FF0F4
:1002200000070023F0E80256083C85EA010586EA4B
:10023000010685FA47F5A3FA87F586FA47F6A5FA87
:1002400087F68EB9EED1F0BC01F0FF0102F0070293
:1002500032B110F8013B013A83EA010313B1F8D13E
:100260000020704701387047002D06BF354603381F
:10027000073815F0010F07D1013015F4807F02BF58
:10028000013015F4C03F0130F0BC0138704700BFA9
:10029000034613F8012B002AFBD1181A01387047C6
:1002A00081F0004102E000BF83F0004330B54FEA27
:1002B00041044FEA430594EA050F08BF90EA020F94
:1002C0001FBF54EA000C55EA020C7FEA645C7FEA27
:1002D000655C00F0E2804FEA5454D4EB5555B8BF4A
:1002E0006D420CDD2C4480EA020281EA030382EABB
:1002F000000083EA010180EA020281EA0303362D4D
:1003000088BF30BD11F0004F4FEA01314FF4801C1F
:100310004CEA113102D0404261EB410113F0004F31
:100320004FEA03334CEA133302D0524263EB4303E8
:1003300094EA050F00F0A780A4F10104D5F1200E86
:100340000DDB02FA0EFC22FA05F2801841F10001E1
:1003500003FA0EF2801843FA05F359410EE0A5F1B5
:1003600020050EF1200E012A03FA0EFC28BF4CF0E6
:10037000020C43FA05F3C01851EBE37101F000459C
:1003800007D54FF0000EDCF1000C7EEB00006EEBA9
:100390000101B1F5801F1BD3B1F5001F0CD3490833
:1003A0005FEA30004FEA3C0C04F101044FEA44528A
:1003B00012F5800F80F09A80BCF1004F08BF5FEA11
:1003C000500C50F1000041EB045141EA050130BDF1
:1003D0005FEA4C0C404141EB0101013C28BFB1F503
:1003E000801FE9D291F0000F04BF01460020B1FA4E
:1003F00081F308BF2033A3F10B03B3F120020CDA21
:100400000C3208DD02F1140CC2F10C0201FA0CF0FE
:1004100021FA02F10CE002F11402D8BFC2F1200C63
:1004200001FA02F120FA0CFCDCBF41EA0C01904019
:10043000E41AA2BF01EB0451294330BD6FEA040462
:100440001F3C1CDA0C340EDC04F11404C4F120024D
:1004500020FA04F001FA02F340EA030021FA04F35F
:1004600045EA030130BDC4F10C04C4F1200220FAB6
:1004700002F001FA04F340EA0300294630BD21FAF4
:1004800004F0294630BD94F0000F83F4801306BFBA
:1004900081F480110134013D4EE77FEA645C18BFAE
:1004A0007FEA655C29D094EA050F08BF90EA020F45
:1004B00005D054EA000C04BF1946104630BD91EA3D
:1004C000030F1EBF0021002030BD5FEA545C05D140
:1004D0004000494128BF41F0004130BD14F580047F
:1004E0003CBF01F5801130BD01F0004545F0FE41F3
:1004F00041F470014FF0000030BD7FEA645C1ABF28
:10050000194610467FEA655C1CBF0B46024650EA5E
:10051000013406BF52EA033591EA030F41F400218A
:1005200030BD00BF90F0000F04BF0021704730B510
:100530004FF4806404F132044FF000054FF00001E5
:1005400050E700BF90F0000F04BF0021704730B5A6
:100550004FF4806404F1320410F0004548BF40427B
:100560004FF000013EE700BF42004FEAE2014FEAD0
:1005700031014FEA02701FBF12F07F4393F07F4FAB
:1005800081F06051704732F07F4208BF704793F0AE
:100590007F4F04BF41F40021704730B54FF46074C1
:1005A00001F0004521F000411CE700BF50EA0102C4
:1005B00008BF704730B54FF000050AE050EA01026D
:1005C00008BF704730B511F0004502D5404261EBDD
:1005D00041014FF4806404F132045FEA915C3FF41E
:1005E000D8AE4FF003025FEADC0C18BF03325FEABB
:1005F000DC0C18BF033202EBDC02C2F1200300FA6C
:1006000003FC20FA02F001FA03FE40EA0E0021FA90
:1006100002F11444BDE600BF70B54FF0FF0C4CF47E
:10062000E06C1CEA11541DBF1CEA135594EA0C0F30
:1006300095EA0C0F00F0DEF82C4481EA030621EA6B
:100640004C5123EA4C5350EA013518BF52EA0335A6
:1006500041F4801143F4801338D0A0FB02CE4FF058
:100660000005E1FB02E506F00042E0FB03E54FF088
:100670000006E1FB03569CF0000F18BF4EF0010E80
:10068000A4F1FF04B6F5007F64F5407404D25FEA7C
:100690004E0E6D4146EB060642EAC62141EA55512F
:1006A0004FEAC52040EA5E504FEACE2EB4F1FD0C71
:1006B00088BFBCF5E06F1ED8BEF1004F08BF5FEAEF
:1006C000500E50F1000041EB045170BD06F00046A1
:1006D00046EA010140EA020081EA0301B4EB5C044E
:1006E000C2BFD4EB0C0541EA045170BD41F4801146
:1006F0004FF0000E013C00F3AB8014F1360FDEBF6B
:10070000002001F0004170BDC4F10004203C35DA46
:100710000C341BDC04F11404C4F1200500FA05F3C9
:1007200020FA04F001FA05F240EA020001F000426A
:1007300021F0004110EBD37021FA04F642EB0601E0
:100740005EEA430E08BF20EAD37070BDC4F10C040A
:10075000C4F1200500FA04F320FA05F001FA04F2CE
:1007600040EA020001F0004110EBD37041F10001BA
:100770005EEA430E08BF20EAD37070BDC4F12005C5
:1007800000FA05F24EEA020E20FA04F301FA05F22D
:1007900043EA020321FA04F001F0004121FA04F2D5
:1007A00020EA020000EBD3705EEA430E08BF20EAA5
:1007B000D37070BD94F0000F0FD101F000464000DF
:1007C00041EB010111F4801F08BF013CF7D041EA61
:1007D000060195F0000F18BF704703F00046520065
:1007E00043EB030313F4801F08BF013DF7D043EA36
:1007F0000603704794EA0C0F0CEA135518BF95EAEC
:100800000C0F0CD050EA410618BF52EA4306D1D172
:1008100081EA030101F000414FF0000070BD50EA91
:10082000410606BF1046194652EA430619D094EA1B
:100830000C0F02D150EA013613D195EA0C0F05D105
:1008400052EA03361CBF104619460AD181EA030159
:1008500001F0004141F0FE4141F470014FF0000011
:1008600070BD41F0FE4141F4780170BD70B54FF0AC
:10087000FF0C4CF4E06C1CEA11541DBF1CEA13552C
:1008800094EA0C0F95EA0C0F00F0A7F8A4EB05040E
:1008900081EA030E52EA03354FEA013100F0888005
:1008A0004FEA03334FF0805545EA131343EA1263CE
:1008B0004FEA022245EA111545EA10654FEA002683
:1008C0000EF000419D4208BF964244F1FD0404F53C
:1008D000407402D25B084FEA3202B61A65EB030598
:1008E0005B084FEA32024FF480104FF4002CB6EB55
:1008F000020E75EB030E22BFB61A754640EA0C00D5
:100900005B084FEA3202B6EB020E75EB030E22BF14
:10091000B61A754640EA5C005B084FEA3202B6EB55
:10092000020E75EB030E22BFB61A754640EA9C0014
:100930005B084FEA3202B6EB020E75EB030E22BFE4
:10094000B61A754640EADC0055EA060E18D04FEAA2
:10095000051545EA16754FEA06164FEAC30343EA42
:1009600052734FEAC2025FEA1C1CC0D111F4801F0F
:100970000BD141EA00014FF000004FF0004CB6E708
:1009800011F4801F04BF01430020B4F1FD0C88BFA7
:10099000BCF5E06F3FF6AFAEB5EB030C04BFB6EBB2
:1009A000020C5FEA500C50F1000041EB045170BDA5
:1009B0000EF0004E4EEA113114EB5C04C2BFD4EBD2
:1009C0000C0541EA045170BD41F480114FF0000E56
:1009D000013C90E645EA060E8DE60CEA135594EAD2
:1009E0000C0F08BF95EA0C0F3FF43BAF94EA0C0FD5
:1009F0000AD150EA01347FF434AF95EA0C0F7FF44A
:100A000025AF104619462CE795EA0C0F06D152EA9D
:100A100003353FF4FDAE1046194622E750EA410681
:100A200018BF52EA43067FF4C5AE50EA41047FF492
:100A30000DAF52EA43057FF4EBAE12E74FF0FF3CF7
:100A400006E000BF4FF0010C02E000BF4FF0010CC8
:100A50004DF804CD4FEA410C7FEA6C5C4FEA430C41
:100A600018BF7FEA6C5C1BD001B050EA410C0CBF90
:100A700052EA430C91EA030F02BF90EA020F0020F2
:100A8000704710F1000F91EA030F58BF994208BF59
:100A900090422CBFD8176FEAE37040F00100704716
:100AA0004FEA410C7FEA6C5C02D150EA013C07D16D
:100AB0004FEA430C7FEA6C5CD6D152EA033CD3D0B8
:100AC0005DF8040B704700BF8446104662468C46B2
:100AD0001946634600E000BF01B5FFF7B7FF0028E5
:100AE00048BF10F1000F01BD4DF808EDFFF7F4FF0E
:100AF0000CBF012000205DF808FB00BF4DF808ED99
:100B0000FFF7EAFF34BF012000205DF808FB00BFBB
:100B10004DF808EDFFF7E0FF94BF012000205DF8DD
:100B200008FB00BF4DF808EDFFF7CEFF94BF012092
:100B300000205DF808FB00BF4DF808EDFFF7C4FF8B
:100B400034BF012000205DF808FB00BF4FEA410CD4
:100B50007FEA6C5C02D150EA013C0AD14FEA430CB7
:100B60007FEA6C5C02D152EA033C02D14FF00000F4
:100B700070474FF0010070474FEA410212F5001232
:100B800015D211D56FF47873B3EB625212D94FEAD4
:100B9000C12343F0004343EA505311F0004F23FABE
:100BA00002F018BF404270474FF00000704750EA13
:100BB000013005D111F0004008BF6FF000407047D0
:100BC0004FF00000704700BF53B94AB9002908BF71
:100BD00000281CBF4FF0FF314FF0FF3000F070B91C
:100BE000ADF1080C6DE904CE00F006F8DDF804E084
:100BF000DDE9022304B070472DE9F047089E0D4659
:100C000004460F46002B4AD18A42944665D9B2FA6F
:100C100082F343B102FA03FCC3F120029F4020FAA1
:100C200002F217439C404FEA1C4E1FFA8CF5B7FBAB
:100C3000FEF1220C0EFB117742EA074201FB05F0A0
:100C400090420AD91CEB020201F1FF3780F01C81AF
:100C5000904240F2198102396244121AA4B2B2FBE6
:100C6000FEF00EFB102244EA024400FB05F5A5420B
:100C70000AD91CEB040400F1FF3280F00781A54281
:100C800040F204816444023840EA0140641B0021C0
:100C90001EB1DC400023C6E90043BDE8F0878B426B
:100CA00008D9002E00F0ED800021C6E900050846B5
:100CB000BDE8F087B3FA83F1002949D1AB4202D3F2
:100CC000824200F2F880841A65EB03020120174685
:100CD000002EE2D0C6E90047DFE702B9FFDEB2FA34
:100CE00082F3002B40F090808A1A4FEA1C471FFACB
:100CF0008CFE0121B2FBF7F507FB1520220C42EA1E
:100D000000420EFB05F0904208D91CEB020205F1EF
:100D1000FF3802D2904200F2CB804546121AA4B2AC
:100D2000B2FBF7F007FB102244EA02440EFB00FE80
:100D3000A64508D91CEB040400F1FF3202D2A645F7
:100D400000F2BB801046A4EB0E0440EA05409FE78A
:100D5000C1F120078B4022FA07FC4CEA030C05FA8C
:100D600001F420FA07F3FD404FEA1C492343B5FB89
:100D7000F9F81FFA8CFE09FB18551C0C44EA0544CF
:100D800008FB0EF5A54202FA01F200FA01F00BD9B8
:100D90001CEB040408F1FF3A80F08880A54240F281
:100DA0008580A8F102086444641B9DB2B4FBF9F38A
:100DB00009FB134445EA044403FB0EFEA64508D98B
:100DC0001CEB040403F1FF356CD2A6456AD9023B43
:100DD000644443EA0843A3FB0295A4EB0E04AC422F
:100DE000C846AE4656D353D056B1B0EB080264EBBA
:100DF0000E0404FA07F7CA40CC401743C6E9007452
:100E000018460021BDE8F087C3F1200102FA03FC77
:100E100020FA01F225FA01F19D402A434FEA1C47CE
:100E20001FFA8CFEB1FBF7F007FB1015110C41EA1D
:100E3000054100FB0EF58D4204FA03F408D91CEBC2
:100E4000010100F1FF382FD28D422DD902386144C3
:100E5000491B92B2B1FBF7F507FB151142EA0142BB
:100E600005FB0EF1914208D91CEB020205F1FF3897
:100E700016D2914214D9023D6244521A45EA004109
:100E800038E73146304608E73946E6E61046FBE6E5
:100E90004845A9D2B9EB020865EB0C0E013BA3E76C
:100EA0004546EAE72B4694E74046D1E7D0467BE744
:100EB000023D624432E708460AE76444023842E7EA
:100EC000704700BF90B583B002AF0322002101201C
:100ED0000BF0AAF903464C4A1360032200210120BB
:100EE0000BF0A2F90346494A1360032200210120B6
:100EF0000BF09AF90346464A1360032200210120B1
:100F00000BF092F90346434A1360032200210120AB
:100F10000BF08AF90346404A1360032200210120A6
:100F20000BF082F903463D4A13600022022106209D
:100F30000BF07AF903463A4A13600022012101209E
:100F40000BF072F90346374A136000220121012099
:100F50000BF06AF90346344A1360344B00930023C4
:100F6000002247F2305132480DF0B4F80346314ABE
:100F70001360314B00930023002242F210712F487E
:100F80000DF0A8F803462E4A13602E4B0093002361
:100F900001224FF4FA712C480DF09CF803462B4ABD
:100FA00013602A4B1B68002B0BD0284B1C680CF0DD
:100FB0001BFB0246002300930023012120460DF075
:100FC000E5F8234B0193002300930023802221495D
:100FD00021480CF0ABF8214B019300230093002330
:100FE00080221F491F480CF0A1F81F4B01930023DA
:100FF0000093002380221D491D480CF097F800BF84
:101000000437BD4690BD00BF3402002038020020E6
:101010003C0200202C020020300200202802002088
:101020004002002044020020480200207D130008F6
:10103000E8CD01086002002019130008F0CD010876
:101040005C0200204D130008FCCD0108580200206E
:101050005002002004CE0108751000085402002040
:101060000CCE0108251100084C02002018CE010802
:101070007112000880B588B004AF786000237B73DC
:10108000FF233B730023FB730123BB7300233B72DD
:1010900000237B7209F022F81E4B1B6807F10D013B
:1010A000002218460BF06EFB0346012B07D17A7B1A
:1010B0003B7B9A4203D07B7B3B730123FB73164B34
:1010C0001B68002118460BF03DFC144B1B680021E7
:1010D00018460BF037FC0346012BDDD1FB7B002BC0
:1010E000DAD0BB7B002B02D03B7B002B0FD100233F
:1010F000FB730B4B18683A890A230293012301936F
:1011000007F10C0300931023A02104F0E7FD002356
:10111000BB73C1E748020020300200202C020020EF
:101120001800002090B589B004AF78600023BB732D
:1011300000237B730023FB7300233B7200237B722D
:10114000424B18683A890A2302930123019307F15D
:101150000E0300931023A02104F0BAFEBB7B032BE7
:1011600001D90023BB733A4B1B684FF0FF3118467F
:101170000BF0E8FB96200CF00BF9364B1B680021B6
:1011800018460BF0DFFB0346012B52D1324B1B6894
:10119000002118460BF0D6FB0346012B01D100239A
:1011A000FB73FB7B012B01D10223FB73FB7B022B27
:1011B00001D00123FB73294B1B68002118460BF05B
:1011C000C1FB0346012B01D10123FB73244B1B6898
:1011D00007F10D01002218460BF0C0FC0346012B5D
:1011E00001D10223FB73FB7B022B17D110211D4879
:1011F00004F0CCFB0346002B10D0BB7B0133DBB2E9
:10120000BB73174B1B6807F10E01002218460BF049
:10121000B9FABB7B032B01D90123BB73C8200CF0A7
:10122000B7F8114B186807F10E01002300220BF0EC
:1012300083F80E4B1C680CF0D7F90246002300938C
:101240000023012120460CF0A1FF8CE718000020AC
:10125000340200203C020020380200202802002036
:101260004402002000100240480200205C020020DE
:1012700080B584B000AF7860244B1B68002118460D
:101280000BF060FB0346012B1AD10323FB7314E020
:101290001F4B1B680021184606F024FB64200CF04D
:1012A00077F81B4B1B680021184606F0E3FB64200F
:1012B0000CF06EF8FB7B013BFB73FB7B002BE7D153
:1012C000144B1B68002118460BF03CFB0346012B16
:1012D000D2D10223BB7314E00D4B1B6800211846CA
:1012E00006F000FB64200CF053F8094B1B6800214A
:1012F000184606F0BFFB64200CF04AF8BB7B013BAC
:10130000BB73BB7B002BE7D1B6E700BFA80600206C
:1013100000000020A406002080B582B000AF7860F5
:10132000084B18680023002200210BF005F8064B3B
:1013300018680023002200210AF0FEFF00BF0837D2
:10134000BD4680BD2C0200203802002080B582B04E
:1013500000AF7860074B18680023002200210AF0D4
:10136000EBFF4FF40051044804F041FB00BF083785
:10137000BD4680BD30020020000C024080B582B026
:1013800000AF7860054B18680023002200210AF0A6
:10139000D3FF00BF0837BD4680BD00BFA8060020B0
:1013A00080B582B000AF0346FB80FB88402B05D19F
:1013B000044B1B68002118460BF057F900BF083793
:1013C000BD4680BD3402002080B500AF174B184ADF
:1013D0001A60164B05225A60144B00229A60134B78
:1013E0000022DA60114B4FF480221A610F4B4FF448
:1013F00000125A610D4B00221A760C4B00225A76CD
:101400000A4B01229A76094B0022DA76074B00221A
:101410001A77064B00225A77044801F04DFB034629
:10142000002B01D000F0CAFB00BF80BD6402002089
:101430000064004080B58AB000AF786007F1140303
:1014400000221A605A609A60DA601A617B681B6831
:10145000294A93424BD100233B61284B1B6C274AFE
:1014600043F000731364254B1B6C03F000733B6166
:101470003B690023FB60214B1B6B204A43F00803B0
:1014800013631E4B1B6B03F00803FB60FB68032315
:101490007B610223BB610023FB6103233B620923C1
:1014A0007B6207F114031946154804F0C3F80022C3
:1014B0000521132002F026FA132002F03FFA002241
:1014C0000521142002F01EFA142002F037FA00223F
:1014D0000521152002F016FA152002F02FFA00223D
:1014E0000521162002F00EFA162002F027FA00BF9E
:1014F0002837BD4680BD00BF006400400038024070
:10150000000C024080B500AF064B074A1A60054840
:1015100002F022FA0346002B01D000F04FFB00BF7F
:1015200080BD00BFC80200200030024080B485B0FA
:1015300000AF78607B681B680B4A93420DD1002393
:10154000FB600A4B1B6B094A43F480531363074B40
:101550001B6B03F48053FB60FB6800BF1437BD4670
:101560005DF8047B704700BF003002400038024045
:1015700080B582B000AF00237B600C4B1B6B0B4A25
:1015800043F400131363094B1B6B03F400137B60DC
:101590007B68002205210C2002F0B4F90C2002F037
:1015A000CDF900BF0837BD4680BD00BF00380240FE
:1015B00080B58EB000AF07F1240300221A605A6094
:1015C0009A60DA601A6100233B62844B1B6B834A8A
:1015D00043F010031363814B1B6B03F010033B625A
:1015E0003B6A0023FB617D4B1B6B7C4A43F020036D
:1015F00013637A4B1B6B03F02003FB61FB69002331
:10160000BB61764B1B6B754A43F080031363734BCE
:101610001B6B03F08003BB61BB6900237B616F4BD5
:101620001B6B6E4A43F0040313636C4B1B6B03F09C
:1016300004037B617B6900233B61684B1B6B674A3A
:1016400043F001031363654B1B6B03F001033B6124
:101650003B690023FB60614B1B6B604A43F0400316
:1016600013635E4B1B6B03F04003FB60FB680023BE
:10167000BB605A4B1B6B594A43F002031363574B31
:101680001B6B03F00203BB60BB6800237B60534B02
:101690001B6B524A43F008031363504B1B6B03F060
:1016A00008037B607B68002241F616614C4804F019
:1016B00085F900224FF400414A4804F07FF90022E6
:1016C00042F20341484804F079F918237B62002371
:1016D000BB620123FB6207F124031946414803F072
:1016E000A9FF41F616637B620123BB620023FB6204
:1016F00000233B6307F124031946394803F09AFF9E
:101700004FF400437B620123BB620023FB62002392
:101710003B6307F124031946324803F08BFF42F282
:1017200003437B620123BB620023FB6200233B6314
:1017300007F1240319462C4803F07CFF40237B6209
:101740004FF40413BB620123FB6207F12403194623
:10175000234803F06FFF4FF480737B620223BB6268
:101760000023FB6200233B6300237B6307F1240318
:1017700019461E4803F05EFF3C237B624FF40413BE
:10178000BB620123FB6207F124031946164803F0EC
:1017900051FF00220521082002F0B4F8082002F0D1
:1017A000CDF800220521092002F0ACF8092002F052
:1017B000C5F8002205210A2002F0A4F80A2002F050
:1017C000BDF800220521172002F09CF8172002F036
:1017D000B5F800BF3837BD4680BD00BF00380240B5
:1017E0000018024000100240000C024000000240BD
:1017F00080B500AF1B4B1C4A1A601A4B1B4A5A603B
:10180000184B00229A60174B0022DA60154B4FF4F8
:1018100080421A61134B00225A61124B00229A61D6
:10182000104B0022DA610F4B00221A620D4804F0BF
:1018300011F90346002B01D000F0C0F9002109483E
:1018400005F0C7F80346002B01D000F0B7F90021DE
:10185000044805F0FAF80346002B01D000F0AEF979
:1018600000BF80BDD002002000540040A0860100CF
:1018700080B500AF1B4B1C4A1A601A4B1B4A5A60BA
:10188000184B00229A60174B0022DA60154B4FF478
:1018900080421A61134B00225A61124B00229A6156
:1018A000104B0022DA610F4B00221A620D4804F03F
:1018B000D1F80346002B01D000F080F9002109483F
:1018C00005F087F80346002B01D000F077F90021DE
:1018D000044805F0BAF80346002B01D000F06EF979
:1018E00000BF80BD2403002000580040801A06007D
:1018F00080B58CB000AF786007F11C0300221A603D
:101900005A609A60DA601A617B681B68324A9342B7
:101910002DD10023BB61314B1B6B304A43F00203D6
:1019200013632E4B1B6B03F00203BB61BB694FF4C7
:101930004073FB6112233B6201237B620323BB6282
:101940000423FB6207F11C031946254803F072FECD
:1019500000237B61214B1B6C204A43F4001313646A
:101960001E4B1B6C03F400137B617B6930E07B68CA
:101970001B681C4A93422BD100233B61174B1B6B06
:10198000164A43F020031363144B1B6B03F0200330
:101990003B613B690323FB6112233B6200237B62B3
:1019A0000323BB620423FB6207F11C0319460E48A4
:1019B00003F040FE0023FB60084B1B6C074A43F416
:1019C00080031364054B1B6C03F48003FB60FB680E
:1019D00000BF3037BD4680BD005400400038024093
:1019E00000040240005800400014024080B582B05C
:1019F00000AF00F0FBFF00F059F8FFF7D9FDFFF74B
:101A0000B7FD00F07DFDFFF7F3FEFFF731FF00F0BB
:101A10007DF900F00FF900F049FD00F075FCFFF7CB
:101A200071FD00F0D1F8FFF7CFFC00F039F9012289
:101A300004211C4803F0C2FF01221021194803F0C1
:101A4000BDFF0323FB7114E0174B1B6800211846F0
:101A500005F048FF962001F00BF8134B1B6800219E
:101A6000184606F007F8962001F002F8FB79013BD2
:101A7000FB71FB79002BE7D100220421094803F018
:101A80009DFF00221021074803F098FFFFF71AFA84
:101A900008F0B8FE08F036FB08F08CFE0AF07BF880
:101AA000FEE700BF001802400000002080B594B09F
:101AB00000AF07F1200330220021184619F03CF94D
:101AC00007F10C0300221A605A609A60DA601A610A
:101AD0000023BB602E4B1B6C2D4A43F080531364D4
:101AE0002B4B1B6C03F08053BB60BB6800237B60F7
:101AF000284B1B68274A43F440431360254B1B685F
:101B000003F440437B607B6801233B624FF48033E6
:101B10007B620223BB634FF48003FB630F233B64B0
:101B2000D8237B640223BB640823FB6407F12003F2
:101B3000184605F019F80346002B01D000F03EF8D6
:101B400004F0C2FF0346002B01D000F037F80F234A
:101B5000FB6002233B6100237B614FF4A053BB6118
:101B60004FF48053FB6107F10C030521184605F083
:101B700073FA0346002B01D000F020F800224FF446
:101B80008001002005F04EFB00BF5037BD4680BDF0
:101B9000003802400070004080B582B000AF78602D
:101BA0007B681B68044A934201D100F041FF00BFEB
:101BB0000837BD4680BD00BF0014004080B400AFB0
:101BC00072B600BFFEE7000080B500AF064B074AC3
:101BD0001A60054805F0BAFC0346002B01D0FFF758
:101BE000EDFF00BF80BD00BF780300200008065055
:101BF00080B485B000AF78607B681B680B4A934265
:101C00000DD10023FB600A4B5B6B094A43F0400394
:101C10005363074B5B6B03F04003FB60FB6800BF43
:101C20001437BD465DF8047B704700BF00080650BE
:101C30000038024080B500AF174B184A1A60164BA7
:101C40004FF482725A60144B00229A60124B0022A9
:101C5000DA60114B00221A610F4B00225A610E4BC1
:101C60004FF400729A610C4B0022DA610A4B002299
:101C70001A62094B00225A62074B00229A62064BF5
:101C80000A22DA62044805F08BFC0346002B01D0DF
:101C9000FFF794FF00BF80BD88030020003C004098
:101CA00080B500AF174B184A1A60164B4FF482727A
:101CB0005A60144B00229A60124B0022DA60114BDA
:101CC00000221A610F4B00225A610E4B4FF4007232
:101CD0009A610C4B0022DA610A4B00221A62094B0E
:101CE00000225A62074B00229A62064B0A22DA62ED
:101CF000044805F055FC0346002B01D0FFF75EFFBA
:101D000000BF80BDE00300200034014080B500AF7B
:101D1000184B194A1A60174B4FF482725A60154BD0
:101D20004FF400429A60134B0022DA60114B0022FC
:101D30001A61104B00225A610E4B4FF400729A61E7
:101D40000C4B0022DA610B4B00221A62094B002275
:101D50005A62084B00229A62064B0A22DA62054850
:101D600005F01EFC0346002B01D0FFF727FF00BF44
:101D700080BD00BF380400200054014080B58EB003
:101D800000AF786007F1240300221A605A609A605D
:101D9000DA601A617B681B684C4A93422DD100239C
:101DA0003B624B4B1B6C4A4A43F400431364484B61
:101DB0001B6C03F400433B623B6A0023FB61444B12
:101DC0001B6B434A43F004031363414B1B6B03F04B
:101DD0000403FB61FB694FF4E0537B620223BB62A7
:101DE0000023FB6203233B6306237B6307F1240389
:101DF0001946384803F01EFC64E07B681B68364ACD
:101E000093422DD10023BB61314B5B6C304A43F4CC
:101E1000005353642E4B5B6C03F40053BB61BB69EE
:101E200000237B612A4B1B6B294A43F01003136389
:101E3000274B1B6B03F010037B617B694FF4F0436E
:101E40007B620223BB620023FB6203233B63052307
:101E50007B6307F124031946204803F0EBFB31E0D4
:101E60007B681B681E4A93422CD100233B61184BB0
:101E70005B6C174A43F400135364154B5B6C03F41B
:101E800000133B613B690023FB60114B1B6B104A45
:101E900043F0400313630E4B1B6B03F04003FB60E6
:101EA000FB684FF4C0437B620223BB620023FB62EA
:101EB00003233B6305237B6307F124031946094889
:101EC00003F0B8FB00BF3837BD4680BD003C004082
:101ED0000038024000080240003401400010024077
:101EE000005401400018024080B582B000AF0023CA
:101EF0007B60124B5B6C114A43F4804353640F4B7D
:101F00005B6C03F480437B607B6800233B600B4B7E
:101F10001B6C0A4A43F080531364084B1B6C03F09C
:101F200080533B603B6800220F216FF0010001F0FD
:101F3000E9FC00BF0837BD4680BD00BF0038024045
:101F400080B58EB000AF78600023FB620023BB62D7
:101F50000023FB60334B1B6C324A43F020031364B5
:101F6000304B1B6C03F02003FB60FB6807F1100291
:101F700007F114031146184605F0B6FA3B6AFB62F6
:101F8000FB6A002B03D105F087FA786304E005F0C3
:101F900083FA03465B007B637B6B234AA2FB03232C
:101FA0009B0C013BBB62214B214A1A601F4B40F244
:101FB000E732DA601D4ABB6A53601C4B00221A618B
:101FC0001A4B00229A60194B00229A61174805F0BB
:101FD00070FB034687F8333097F83330002B1BD162
:101FE000124805F0B5FB034687F8333097F83330D5
:101FF000002B11D1372001F0A1FC7B680F2B08D8F2
:1020000000227968372001F07DFC0A4A7B68136062
:1020100002E0012387F8333097F833301846383719
:10202000BD4680BD0038024083DE1B439004002083
:10203000001400400800002080B400AFFEE780B428
:1020400000AFFEE780B400AFFEE780B400AFFEE76C
:1020500080B400AFFEE780B400AF00BFBD465DF8BE
:10206000047B704780B500AF042003F0DBFC00BFA9
:1020700080BD80B500AF082003F0D4FC00BF80BD58
:1020800080B500AF102003F0CDFC00BF80BD80B54F
:1020900000AF202003F0C6FC402003F0C3FC00BFCB
:1020A00080BD000080B500AF024801F009FE00BF0E
:1020B00080BD00BF0C06002080B500AF024806F0CE
:1020C000E7FD00BF80BD00BF9805002080B500AFD0
:1020D000024806F0DDFD00BF80BD00BF24050020E2
:1020E00080B500AF024801F00EF900BF80BD00BF0F
:1020F0006402002080B500AF024801F004F900BF7F
:1021000080BD00BF6402002080B500AF024801F02E
:10211000FAF800BF80BD00BF6402002080B500AFA8
:10212000024801F0F0F800BF80BD00BF640200204B
:1021300080B500AF024805F00DFD00BF80BD00BFB7
:102140009004002080B500AF024802F09DFB00BF64
:1021500080BD00BFA408002080B400AF0123184652
:10216000BD465DF8047B704780B582B000AF7860F3
:10217000396018F033FE034616221A604FF0FF3321
:1021800018460837BD4680BD80B582B000AF786084
:102190004FF0FF317868FFF7E7FFFEE780B586B0C4
:1021A00000AFF860B9607A6000237B610AE0AFF3AA
:1021B00000800146BB685A1CBA60CAB21A707B69BB
:1021C00001337B617A697B689A42F0DB7B68184651
:1021D0001837BD4680BD80B586B000AFF860B960E5
:1021E0007A6000237B6109E0BB685A1CBA601B78E7
:1021F0001846AFF300807B6901337B617A697B68A5
:102200009A42F1DB7B6818461837BD4680BD80B422
:1022100083B000AF78604FF0FF3318460C37BD46EF
:102220005DF8047B704780B483B000AF786039609C
:102230003B684FF400525A60002318460C37BD46E5
:102240005DF8047B704780B483B000AF78600123F1
:1022500018460C37BD465DF8047B704780B485B0E6
:1022600000AFF860B9607A60002318461437BD46A5
:102270005DF8047B7047000080B586B000AF7860E1
:10228000144A154BD31A7B617B693B61134B1B6866
:10229000002B02D1114B124A1A60104B1A687B684E
:1022A00013443A699A4207D218F098FD03460C226B
:1022B0001A604FF0FF3309E0084B1B68FB60074BC7
:1022C0001A687B681344054A1360FB681846183780
:1022D000BD4680BD0000032000080000D804002097
:1022E00058F4002080B400AF064BD3F88830054A7C
:1022F00043F47003C2F8883000BFBD465DF8047B2C
:10230000704700BF00ED00E080B58EB000AF07F170
:10231000280300221A605A609A60DA6007F12003ED
:1023200000221A605A603B1D00221A605A609A60AF
:10233000DA601A615A619A612C4B2D4A1A602B4B54
:10234000B4225A60294B00229A60284BF022DA60AE
:10235000264B00221A61254B00229A61234805F082
:10236000A8F90346002B01D0FFF728FC4FF4805357
:10237000BB6207F1280319461C4805F0B5FD03466A
:10238000002B01D0FFF71AFC184805F051FA03465C
:10239000002B01D0FFF712FC00233B6200237B627D
:1023A00007F120031946114806F09EF90346002B59
:1023B00001D0FFF703FC60237B607823BB60002320
:1023C000FB6000237B613B1D00221946074805F096
:1023D000C9FC0346002B01D0FFF7F0FB034800F0D7
:1023E0002BF800BF3837BD4680BD00BFDC0400209D
:1023F0000008004080B485B000AF78607B681B683F
:102400000B4A93420DD10023FB600A4B1B6C094A17
:1024100043F004031364074B1B6C03F00403FB60DD
:10242000FB6800BF1437BD465DF8047B704700BFF2
:10243000000800400038024080B588B000AF7860E6
:1024400007F10C0300221A605A609A60DA601A6180
:102450007B681B68124A93421ED10023BB60114B5C
:102460001B6B104A43F0080313630E4B1B6B03F006
:102470000803BB60BB684FF48053FB6002233B61E1
:1024800000237B610023BB610223FB6107F10C0386
:102490001946054803F0CEF800BF2037BD4680BD81
:1024A0000008004000380240000C024080B500AF38
:1024B000114B124A1A60104B4FF4E1325A600E4B26
:1024C00000229A600C4B0022DA600B4B00221A614A
:1024D000094B0C225A61084B00229A61064B0022DC
:1024E000DA61054806F090F90346002B01D0FFF7AA
:1024F00065FB00BF80BD00BF2405002000780040C0
:1025000080B500AF114B124A1A60104B4FF4612294
:102510005A600E4B00229A600C4B0022DA600B4B83
:1025200000221A61094B0C225A61084B00229A6161
:10253000064B0022DA61054806F066F90346002BD7
:1025400001D0FFF73BFB00BF80BD00BF9805002016
:102550000048004080B58CB000AF786007F11C03E4
:1025600000221A605A609A60DA601A617B681B6800
:10257000524A934235D10023BB61514B1B6C504AE8
:1025800043F0804313644E4B1B6C03F08043BB61EC
:10259000BB6900237B614A4B1B6B494A43F0100324
:1025A0001363474B1B6B03F010037B617B694FF494
:1025B000C073FB6102233B6200237B620323BB6287
:1025C0000823FB6207F11C0319463E4803F032F86A
:1025D00000220521522001F095F9522001F0AEF9B8
:1025E00068E07B681B68384A934263D100233B61F3
:1025F000334B1B6C324A43F480231364304B1B6C07
:1026000003F480233B613B690023FB602C4B1B6B75
:102610002B4A43F008031363294B1B6B03F0080399
:10262000FB60FB684FF44073FB6102233B620023B5
:102630007B620323BB620723FB6207F11C0319467D
:10264000224802F0F7FF224B224A1A60204B4FF03B
:1026500000625A601E4B00229A601D4B0022DA6015
:102660001B4B4FF480621A61194B00225A61184BC0
:1026700000229A61164B4FF48072DA61144B0022EB
:102680001A62134B00225A62114801F081F9034685
:10269000002B01D0FFF792FA7B680D4A9A630C4A2F
:1026A0007B68936300220521272001F02BF9272066
:1026B00001F044F900BF3037BD4680BD00780040CE
:1026C000003802400010024000480040000C024068
:1026D0000C06002028600240DFF834D00D480E4977
:1026E0000E4A002302E0D458C4500433C4188C426C
:1026F000F9D30B4A0B4C002301E013600432A242D1
:10270000FBD3FFF7EFFD18F06FFBFFF76FF9704792
:1027100000000320000000200C020020100202082C
:102720000C02002058F40020FEE780B483B000AF14
:10273000786039607B68002B0BD03B68DB68002B2E
:1027400007D03B689B68002B03D03B681B69002BBC
:1027500002D14FF0FF3314E03B681A687B689A603F
:102760003B685A687B68DA603B68DA687B685A6164
:102770003B689A687B681A613B681A697B689A6152
:10278000002318460C37BD465DF8047B704780B5C2
:1027900086B000AF78600023FB600023BB6000239D
:1027A0007B6100233B617B685B68002B7CD17B688D
:1027B0009B68002B02D07B689B6898477B6820222F
:1027C0001A6000237B611CE07B685B6907F10802EB
:1027D0001221786998470346002B03DA6FF004034F
:1027E0003B610BE0BB6803F01F037A699A4205D195
:1027F0007B687A691A6000233B6105E07B690133DD
:102800007B617B691F2BDFD97B681B681F2B02D97B
:102810006FF002033B613B69002B45D17B681B696C
:102820007A6810684FF40042002198470346002B55
:1028300037DB7B685B697A68106807F10802002162
:1028400098470346002B28DB7B689B699847034623
:10285000FB601CE07B689B69984703461A46FB684F
:10286000D31AB3F5FA7F0ED87B685B697A68106873
:1028700007F10802002198470346002B07DA6FF0A2
:1028800004033B6110E06FF001033B610CE0BB68A7
:1028900003F40043002BDDD106E06FF004033B613D
:1028A00002E06FF003033B613B69002B12D17B68B0
:1028B0009B6998470346FB6000BF7B689B6998470C
:1028C00003461A46FB68D31AB3F5FA6FF5D97B684D
:1028D00001225A603B6918461837BD4680BD80B555
:1028E00084B000AF78600023FB607B685B697A6826
:1028F000106807F10C02012198470346002B02DA09
:102900006FF004036EE07B685B697A68106807F11A
:102910000C02012198470346002B02DA6FF00403F2
:1029200060E0FB6803F00403002B01D1012359E0B0
:102930007B685B697A68106807F10C020021984790
:102940000346002B02DA6FF004034BE0FB6803F44C
:102950008053002B1BD1FB6803F40053002B06D0DF
:10296000FB6803F48073002B01D002233AE0FB687C
:1029700003F40053002B01D0032333E0FB6803F47E
:102980008073002B01D004232CE005232AE07B6810
:102990005B697A68106807F10C021F2198470346AB
:1029A000002B02DA6FF004031CE0FB6803F4805391
:1029B000002B01D1062315E0FB6803F01C03182B44
:1029C00001D102230EE0FB6803F01C03082B01D1A8
:1029D000032307E0FB6803F01C03142B01D104233D
:1029E00000E0052318461037BD4680BD80B500AF16
:1029F0000E4B1B680D4A43F4007313600B4B1B68AE
:102A00000A4A43F480631360084B1B68074A43F487
:102A100080731360032000F06AFF0F20FFF790FA25
:102A2000FFF762FA0023184680BD00BF003C024059
:102A300080B400AF064B1B781A46064B1B68134444
:102A4000044A136000BFBD465DF8047B704700BFB9
:102A50000C0000206C06002080B400AF034B1B6804
:102A60001846BD465DF8047B704700BF6C06002029
:102A700080B584B000AF7860FFF7EEFFB8607B6888
:102A8000FB60FB68B3F1FF3F05D00A4B1B781A4689
:102A9000FB681344FB6000BFFFF7DEFF0246BB6824
:102AA000D31AFA689A42F7D800BF00BF1037BD4664
:102AB00080BD00BF0C00002080B584B000AF7860FE
:102AC0007B68002B01D101231CE17B6893F8203047
:102AD000DBB2002B31D17B688C4A1A647B688C4A4C
:102AE0005A647B688B4A9A647B688B4ADA647B6899
:102AF0008A4A9A627B688A4ADA627B68894A1A63E0
:102B00007B68894A5A637B68884A9A637B68884AEB
:102B1000DA637B68874A1A657B68874A5A657B68EF
:102B2000864A9A657B68DB6D002B02D17B68844AFC
:102B3000DA657B68DB6D786898477B681B681A6884
:102B40007B681B6842F001021A60FFF785FFF8609E
:102B500012E0FFF781FF0246FB68D31A0A2B0BD95C
:102B60007B685B6A43F400327B685A627B680522AB
:102B700083F820200123C5E07B681B685B6803F0B5
:102B80000103002BE5D07B681B681A687B681B6813
:102B900022F002021A60FFF75FFFF86012E0FFF711
:102BA0005BFF0246FB68D31A0A2B0BD97B685B6A72
:102BB00043F400327B685A627B68052283F8202048
:102BC00001239FE07B681B685B6803F00203002B16
:102BD000E5D17B681B7E012B08D17B681B681A68D6
:102BE0007B681B6842F080021A6007E07B681B6804
:102BF0001A687B681B6822F080021A607B685B7E23
:102C0000012B08D17B681B681A687B681B6842F03F
:102C100040021A6007E07B681B681A687B681B68C3
:102C200022F040021A607B689B7E012B08D17B68F2
:102C30001B681A687B681B6842F020021A6007E074
:102C40007B681B681A687B681B6822F020021A6088
:102C50007B68DB7E012B08D17B681B681A687B6868
:102C60001B6822F010021A6007E07B681B681A6874
:102C70007B681B6842F010021A607B681B7F012B87
:102C800008D17B681B681A687B681B6842F00802E1
:102C90001A6007E07B681B681A687B681B6822F073
:102CA00008021A607B685B7F012B08D17B681B6878
:102CB0001A687B681B6842F004021A6007E07B68B0
:102CC0001B681A687B681B6822F004021A607B6824
:102CD0009A687B68DB681A437B681B691A437B68C8
:102CE0005B6942EA03017B685B685A1E7B681B686C
:102CF0000A43DA617B6800225A627B68012283F80A
:102D00002020002318461037BD4680BD0937000833
:102D10001D37000831370008453700089136000894
:102D2000A5360008B9360008CD360008E13600089F
:102D3000F5360008593700086D370008813700085C
:102D40003514000880B487B000AFF8600B467A6095
:102D5000FB720023FB757B68002B07D1FB685B6A65
:102D600043F48002FB685A62012394E0FB6893F805
:102D70002030DBB2012B68D1FB7A0E2B5CD801A28C
:102D800052F823F0C12D0008C92D0008D12D0008EC
:102D9000D92D0008E12D0008E92D0008F12D0008CB
:102DA000F92D0008012E0008092E0008112E000838
:102DB000192E0008212E0008292E0008312E0008A7
:102DC000FB687A689A6265E0FB687A68DA6261E0BB
:102DD000FB687A681A635DE0FB687A685A6359E0B9
:102DE000FB687A689A6355E0FB687A68DA6351E0B9
:102DF000FB687A681A644DE0FB687A685A6449E0B7
:102E0000FB687A689A6445E0FB687A68DA6441E0B6
:102E1000FB687A681A653DE0FB687A685A6539E0B4
:102E2000FB687A689A6535E0FB687A68DA6531E0B4
:102E3000FB687A681A662DE0FB685B6A43F48002DF
:102E4000FB685A620123FB7524E0FB6893F820308D
:102E5000DBB2002B16D1FB7A0D2B02D00E2B04D047
:102E600007E0FB687A68DA6514E0FB687A681A663E
:102E700010E0FB685B6A43F48002FB685A6201233E
:102E8000FB7507E0FB685B6A43F48002FB685A62EB
:102E90000123FB75FB7D18461C37BD465DF8047B9E
:102EA000704700BF80B584B000AF78607B6893F84E
:102EB0002030DBB2012B2ED17B68022283F8202048
:102EC0007B681B681A687B681B6822F001021A6025
:102ED000FFF7C2FDF86012E0FFF7BEFD0246FB6897
:102EE000D31A0A2B0BD97B685B6A43F400327B68E8
:102EF0005A627B68052283F82020012312E07B6858
:102F00001B685B6803F00103002BE5D17B6800229E
:102F10005A62002306E07B685B6A43F400227B6808
:102F20005A62012318461037BD4680BD80B489B06F
:102F300000AFF860B9607A603B60FB6893F82030BE
:102F4000FB77FB681B689B68BB61FB7F012B03D091
:102F5000FB7F022B40F0B880BB6903F08063002B3D
:102F60000AD1BB6903F00063002B05D1BB6903F0F4
:102F70008053002B00F0A080BB691B0E03F00303FD
:102F80007B617B69022B07D9FB685B6A43F4000213
:102F9000FB685A6201239EE001227B699A403B68EC
:102FA0001A60BB689B68002B0DD1BB681B685A0573
:102FB000BB68DB68F96809681A437B6918331B0131
:102FC0000B441A600FE0BB685B68DA00BB689B6863
:102FD0001A43BB68DB68F96809681A437B691833D0
:102FE0001B010B441A60FB681968BB681A697B698E
:102FF00018331B010B4404331A60BB681B7D012B83
:1030000011D1FB681A687B6918331B011344043320
:103010001B68FA68116843F480727B6918331B01DE
:103020000B4404331A607B6807331B781A067B68ED
:1030300006331B781B041A437B6805331B781B027D
:1030400013437A68043212781046FA68116843EA2A
:1030500000027B691B010B4403F5C6731A607B6891
:1030600003331B781A067B6802331B781B041A4350
:103070007B6801331B781B0213437A681278104671
:10308000FA68116843EA00027B691B010B4403F5EF
:10309000C4731A60FB681A687B6918331B011344F8
:1030A0001B68FA68116843F001027B6918331B0141
:1030B0000B441A6000230EE0FB685B6A43F40012C5
:1030C000FB685A62012306E0FB685B6A43F48022D6
:1030D000FB685A62012318462437BD465DF8047B1D
:1030E000704780B487B000AFF860B9607A603B6029
:1030F000FB6893F82030FB75FB7D012B03D0FB7D33
:10310000022B40F0F380BB68002B0ED1FB681B68DC
:10311000DB6803F00303002B16D1FB685B6A43F402
:103120000012FB685A620123E7E0FB681B681B6919
:1031300003F00303002B07D1FB685B6A43F4001222
:10314000FB685A620123D8E0FB681A68BB681B332E
:103150001B0113441B6803F004027B689A607B68C0
:103160009B68002B0CD1FB681A68BB681B331B01E2
:1031700013441B685B0DC3F30A027B681A600BE003
:10318000FB681A68BB681B331B0113441B68DB0810
:1031900023F060427B685A60FB681A68BB681B3387
:1031A0001B0113441B6803F002027B68DA60FB68B2
:1031B0001A68BB681B331B01134404331B6803F0FC
:1031C0000F027B681A61FB681A68BB681B331B011E
:1031D000134404331B681B0ADAB27B689A61FB68EC
:1031E0001A68BB681B331B01134404331B681B0C98
:1031F0009AB27B685A61FB681A68BB681B0113446A
:1032000003F5DC731B68DAB23B681A70FB681A6856
:10321000BB681B01134403F5DC731B681A0A3B6887
:103220000133D2B21A70FB681A68BB681B011344E1
:1032300003F5DC731B681A0C3B680233D2B21A70B8
:10324000FB681A68BB681B01134403F5DC731B6839
:103250001A0E3B680333D2B21A70FB681A68BB6857
:103260001B01134403F5DE731A683B680433D2B2C2
:103270001A70FB681A68BB681B01134403F5DE7300
:103280001B681A0A3B680533D2B21A70FB681A68C9
:10329000BB681B01134403F5DE731B681A0C3B6803
:1032A0000633D2B21A70FB681A68BB681B0113445C
:1032B00003F5DE731B681A0E3B680733D2B21A702F
:1032C000BB68002B08D1FB681B68DA68FB681B68C9
:1032D00042F02002DA6007E0FB681B681A69FB68AD
:1032E0001B6842F020021A61002306E0FB685B6A5B
:1032F00043F48022FB685A62012318461C37BD46FE
:103300005DF8047B704780B58AB000AF7860002319
:103310007B627B681B685B693B627B681B685B68E0
:10332000FB617B681B689B68BB617B681B68DB6813
:103330007B617B681B681B693B617B681B689B69C1
:10334000FB603B6A03F00103002B00F08380BB6944
:1033500003F00103002B25D07B681B6801229A60D3
:10336000BB6903F00203002B04D07B689B6A78687A
:10337000984717E0BB6903F00403002B04D07B6A75
:1033800043F400637B620DE0BB6903F00803002B8C
:1033900004D07B6A43F480537B6203E07B685B6B01
:1033A00078689847BB6903F48073002B26D07B684C
:1033B0001B684FF480729A60BB6903F40073002BA2
:1033C00004D07B68DB6A7868984717E0BB6903F430
:1033D0008063002B04D07B6A43F400537B620DE0D2
:1033E000BB6903F40063002B04D07B6A43F4804381
:1033F0007B6203E07B689B6B78689847BB6903F44A
:103400008033002B26D07B681B684FF480329A6093
:10341000BB6903F40033002B04D07B681B6B786816
:10342000984717E0BB6903F48023002B04D07B6A24
:1034300043F400437B620DE0BB6903F40023002BDF
:1034400004D07B6A43F480337B6203E07B68DB6BF0
:10345000786898473B6A03F00803002B0CD07B691F
:1034600003F01003002B07D07B6A43F400737B62E8
:103470007B681B681022DA603B6A03F00403002BB0
:103480000CD07B6903F00803002B07D07B681B6816
:103490000822DA607B685B6C786898473B6A03F0C7
:1034A0000203002B0AD07B681B68DB6803F0030370
:1034B000002B03D07B681B6C786898473B6A03F04D
:1034C0004003002B0CD03B6903F01003002B07D006
:1034D0007B6A43F480637B627B681B6810221A61FD
:1034E0003B6A03F02003002B0CD03B6903F0080378
:1034F000002B07D07B681B6808221A617B68DB6C95
:10350000786898473B6A03F01003002B0AD07B6869
:103510001B681B6903F00303002B03D07B689B6CC3
:10352000786898473B6A03F40033002B0CD0FB69A2
:1035300003F01003002B07D07B681B6810225A6031
:103540007B681B6D786898473B6A03F48033002BD7
:103550000CD0FB6903F00803002B07D07B681B68C5
:1035600008225A607B685B6D786898473B6A03F471
:103570000043002B7BD0FB6903F00403002B72D0C7
:103580003B6A03F48073002B08D0FB6803F001034F
:10359000002B03D07B6A43F001037B623B6A03F498
:1035A0000073002B08D0FB6803F00203002B03D04C
:1035B0007B6A43F002037B623B6A03F48063002B67
:1035C00008D0FB6803F00403002B03D07B6A43F0B0
:1035D00004037B623B6A03F40063002B43D0FB6867
:1035E00003F07003002B3ED0FB6803F07003602BE8
:1035F0002BD0602B2ED8502B22D0502B2AD8402BEA
:1036000019D0402B26D8302B10D0302B22D8102B9D
:1036100002D0202B05D01DE07B6A43F008037B62BB
:1036200019E07B6A43F010037B6214E07B6A43F08D
:1036300020037B620FE07B6A43F040037B620AE079
:103640007B6A43F080037B6205E07B6A43F480730E
:103650007B6200E000BF7B681B689A697B681B681F
:1036600022F070029A617B681B6804225A607B6AB0
:10367000002B09D07B685A6A7B6A1A437B685A62BE
:103680007B689B6D7868984700BF2837BD4680BD32
:1036900080B483B000AF786000BF0C37BD465DF8E2
:1036A000047B704780B483B000AF786000BF0C37F4
:1036B000BD465DF8047B704780B483B000AF78608E
:1036C00000BF0C37BD465DF8047B704780B483B003
:1036D00000AF786000BF0C37BD465DF8047B7047D3
:1036E00080B483B000AF786000BF0C37BD465DF892
:1036F000047B704780B483B000AF786000BF0C37A4
:10370000BD465DF8047B704780B483B000AF78603D
:1037100000BF0C37BD465DF8047B704780B483B0B2
:1037200000AF786000BF0C37BD465DF8047B704782
:1037300080B483B000AF786000BF0C37BD465DF841
:10374000047B704780B483B000AF786000BF0C3753
:10375000BD465DF8047B704780B483B000AF7860ED
:1037600000BF0C37BD465DF8047B704780B483B062
:1037700000AF786000BF0C37BD465DF8047B704732
:1037800080B483B000AF786000BF0C37BD465DF8F1
:10379000047B704780B485B000AF78607B6803F02D
:1037A0000703FB600C4BDB68BB60BA684FF6FF0396
:1037B0001340BB60FB681A02BB68134343F0BF634E
:1037C00043F40033BB60044ABB68D36000BF1437C6
:1037D000BD465DF8047B704700ED00E080B400AFAB
:1037E000044BDB681B0A03F007031846BD465DF86F
:1037F000047B704700ED00E080B483B000AF034667
:10380000FB7197F90730002B0BDBFB7903F01F02EC
:10381000074997F907305B09012000FA02F241F8E5
:10382000232000BF0C37BD465DF8047B704700BF06
:1038300000E100E080B483B000AF03463960FB7163
:1038400097F90730002B0ADB3B68DAB20C4997F98D
:1038500007301201D2B20B4483F800230AE03B6820
:10386000DAB20849FB7903F00F03043B1201D2B22C
:103870000B441A7600BF0C37BD465DF8047B7047D9
:1038800000E100E000ED00E080B489B000AFF86036
:10389000B9607A60FB6803F00703FB61FB69C3F161
:1038A0000703042B28BF0423BB61FB690433062BE9
:1038B00002D9FB69033B00E000237B614FF0FF323C
:1038C000BB6902FA03F3DA43BB681A407B699A408A
:1038D0004FF0FF317B6901FA03F3D9437B680B405A
:1038E000134318462437BD465DF8047B704780B506
:1038F00082B000AF78607868FFF74CFF00BF0837F0
:10390000BD4680BD80B586B000AF0346B9607A6021
:10391000FB7300237B61FFF761FF78617A68B96808
:103920007869FFF7B1FF024697F90F301146184644
:10393000FFF780FF00BF1837BD4680BD80B582B05D
:1039400000AF0346FB7197F907301846FFF754FFA5
:1039500000BF0837BD4680BD80B582B000AF78603B
:103960007B68002B01D101230EE07B685B79DBB221
:10397000002B05D17B6800221A717868FDF7D6FD0F
:103980007B6801225A71002318460837BD4680BD66
:1039900080B586B000AF786000237B61FFF75CF8EC
:1039A00038617B68002B01D1012399E07B680222FA
:1039B00083F835207B68002283F834207B681B68FD
:1039C0001A687B681B6822F001021A600FE0FFF79B
:1039D00043F802463B69D31A052B08D97B6820229D
:1039E0005A657B68032283F83520032378E07B68DF
:1039F0001B681B6803F00103002BE8D17B681B6880
:103A00001B687B617A69384B13407B617B685A681D
:103A10007B689B681A437B68DB681A437B681B6979
:103A20001A437B685B691A437B689B691A437B680E
:103A3000DB691A437B681B6A13437A6913437B6112
:103A40007B685B6A042B07D17B68DA6A7B681B6B37
:103A500013437A6913437B617B681B687A691A6038
:103A60007B681B685B697B617B6923F007037B6173
:103A70007B685B6A7A6913437B617B685B6A042BB2
:103A800017D17B689B6A7A6913437B617B68DB6A29
:103A9000002B0ED0786800F001FB0346002B08D005
:103AA0007B6840225A657B68012283F83520012318
:103AB00016E07B681B687A695A61786800F0B8FA8A
:103AC0000346FB607B68DB6D3F229A40FB689A608F
:103AD0007B6800225A657B68012283F83520002329
:103AE00018461837BD4680BD3F8010F080B586B0BF
:103AF00000AFF860B9607A603B600023FB75FB683B
:103B00009B6D3B61FB6893F83430012B01D102239C
:103B100040E0FB68012283F83420FB6893F83530DD
:103B2000DBB2012B2FD1FB68022283F83520FB6822
:103B300000225A653B687A68B968F86800F04AFA6A
:103B4000FB68DB6D3F229A403B699A60FB681B680B
:103B50001A68FB681B6842F016021A60FB681B6C4F
:103B6000002B07D0FB681B681A68FB681B6842F0D3
:103B700008021A60FB681B681A68FB681B6842F041
:103B800001021A6005E0FB68002283F8342002235A
:103B9000FB75FB7D18461837BD4680BD80B584B0E7
:103BA00000AF78607B689B6DFB60FEF755FFB860E7
:103BB0007B6893F83530DBB2022B08D07B6880221B
:103BC0005A657B68002283F83420012352E07B6829
:103BD0001B681A687B681B6822F016021A607B68F3
:103BE0001B685A697B681B6822F080025A617B68F7
:103BF0001B6C002B03D17B689B6C002B07D07B6870
:103C00001B681A687B681B6822F008021A607B68D0
:103C10001B681A687B681B6822F001021A6013E0B7
:103C2000FEF71AFF0246BB68D31A052B0CD97B6836
:103C300020225A657B68032283F835207B680022A6
:103C400083F83420032315E07B681B681B6803F0AE
:103C50000103002BE4D17B68DB6D3F229A40FB68B7
:103C60009A607B68012283F835207B68002283F804
:103C70003420002318461037BD4680BD80B483B081
:103C800000AF78607B6893F83530DBB2022B04D04C
:103C90007B6880225A6501230CE07B68052283F84B
:103CA00035207B681B681A687B681B6822F001025C
:103CB0001A60002318460C37BD465DF8047B704738
:103CC00080B586B000AF78600023BB608E4B1B6868
:103CD0008E4AA2FB03239B0A7B617B689B6D3B6141
:103CE0003B691B68FB607B68DB6D08229A40FB68C0
:103CF0001340002B1AD07B681B681B6803F0040379
:103D0000002B13D07B681B681A687B681B6822F045
:103D100004021A607B68DB6D08229A403B699A6056
:103D20007B685B6D43F001027B685A657B68DB6DE5
:103D300001229A40FB681340002B12D07B681B685D
:103D40005B6903F08003002B0BD07B68DB6D0122E5
:103D50009A403B699A607B685B6D43F002027B6826
:103D60005A657B68DB6D04229A40FB681340002B88
:103D700012D07B681B681B6803F00203002B0BD07A
:103D80007B68DB6D04229A403B699A607B685B6DBF
:103D900043F004027B685A657B68DB6D10229A4011
:103DA000FB681340002B43D07B681B681B6803F043
:103DB0000803002B3CD07B68DB6D10229A403B69E6
:103DC0009A607B681B681B6803F48023002B18D063
:103DD0007B681B681B6803F40023002B08D17B68F9
:103DE0001B6C002B24D07B681B6C786898471FE005
:103DF0007B689B6C002B1BD07B689B6C786898471A
:103E000016E07B681B681B6803F48073002B07D1E6
:103E10007B681B681A687B681B6822F008021A60BE
:103E20007B681B6C002B03D07B681B6C7868984701
:103E30007B68DB6D20229A40FB681340002B00F06A
:103E40008F807B681B681B6803F01003002B00F059
:103E500087807B68DB6D20229A403B699A607B6893
:103E600093F83530DBB2052B36D17B681B681A68B6
:103E70007B681B6822F016021A607B681B685A690F
:103E80007B681B6822F080025A617B681B6C002BE8
:103E900003D17B689B6C002B07D07B681B681A687A
:103EA0007B681B6822F008021A607B68DB6D3F228A
:103EB0009A403B699A607B68012283F835207B68D1
:103EC000002283F834207B681B6D002B7ED07B683A
:103ED0001B6D7868984779E07B681B681B6803F462
:103EE0008023002B1DD07B681B681B6803F4002314
:103EF000002B0DD17B685B6C002B31D07B685B6C39
:103F0000786898472CE000BF04000020B5814E1B64
:103F10007B68DB6B002B23D07B68DB6B7868984772
:103F20001EE07B681B681B6803F48073002B0FD1B5
:103F30007B681B681A687B681B6822F010021A6095
:103F40007B68012283F835207B68002283F83420C7
:103F50007B68DB6B002B03D07B68DB6B7868984752
:103F60007B685B6D002B32D07B685B6D03F00103D7
:103F7000002B22D07B68052283F835207B681B68E4
:103F80001A687B681B6822F001021A60BB68013363
:103F9000BB607A699A4207D37B681B681B6803F091
:103FA0000103002BF2D100E000BF7B68012283F8FF
:103FB00035207B68002283F834207B68DB6C002B83
:103FC00005D07B68DB6C7868984700E000BF183745
:103FD000BD4680BD80B485B000AFF860B9607A603E
:103FE0003B60FB681B681A68FB681B6822F4802230
:103FF0001A60FB681B683A685A60FB689B68402B34
:1040000008D1FB681B687A689A60FB681B68BA680D
:10401000DA6007E0FB681B68BA689A60FB681B6897
:104020007A68DA6000BF1437BD465DF8047B7047DC
:1040300080B485B000AF78607B681B68DBB2103B52
:10404000144AA2FB03231B09FB60134AFB681344B9
:104050001B781A467B68DA65FB68032B09D97B68F5
:104060001B6823F47F7323F003031A1D7B689A6592
:1040700007E07B681B6823F47F7323F003037A68EF
:1040800093657B689B6D18461437BD465DF8047BCD
:10409000704700BFABAAAAAAE4FC010880B485B0AF
:1040A00000AF78600023FB737B689B6ABB607B6812
:1040B0009B69002B1FD1BB68032B56D801A252F875
:1040C00023F000BFD5400008E7400008D5400008B5
:1040D0006B4100087B68DB6A03F08073002B46D0DD
:1040E0000123FB7343E07B68DB6AB3F1C07F40D1FF
:1040F0000123FB733DE07B689B69B3F5005F21D131
:10410000BB68032B37D801A252F823F01D410008E9
:10411000234100081D410008354100080123FB73BD
:1041200030E07B68DB6A03F08073002B25D001232D
:10413000FB7322E07B68DB6AB3F1C07F1FD10123F0
:10414000FB731CE0BB68022B03D9BB68032B03D0B5
:1041500018E00123FB7315E07B68DB6A03F08073D2
:10416000002B0ED00123FB730BE000BF0AE000BF61
:1041700008E000BF06E000BF04E000BF02E000BFAF
:1041800000E000BFFB7B18461437BD465DF8047B9A
:10419000704700BF80B584B000AF78607B68002BAB
:1041A00001D101236CE07B68D3F88430002B06D169
:1041B0007B682322C3F88420786807F0D7F80023AF
:1041C000BB60314B5B6C304A43F4804353642E4BED
:1041D0005B6C03F48043BB60BB682C4B5B682B4A71
:1041E00023F400035360294B5A687B689B68274976
:1041F00013434B60254B5B687B681B6803F580535A
:104200001B687A68126843F0010302F5805213605C
:10421000FEF722FCF86011E0FEF71EFC0246FB6888
:10422000D31AB3F5FA7F09D97B680422C3F8882032
:104230007B68E022C3F88420012321E07B681B68AF
:1042400003F580531B6803F00103002BE4D1786869
:1042500000F04AFF786800F0F1FF786801F047F855
:104260007B685B681A460021786800F0AFFF7B68C6
:104270000022C3F888207B681022C3F88420002322
:1042800018461037BD4680BD003802400038014056
:1042900080B584B000AF78607B68D3F88430102B91
:1042A0007FD17B682322C3F884207B6801229A6532
:1042B0007B681B68DA6B7B681B6842F40272DA6306
:1042C0007B681B68D3F80C317A68126843F40033BA
:1042D00043F06003C2F80C317B681B68D3F81021EF
:1042E0007B681B6842F40312C3F810217B68042228
:1042F000DA66786800F0F8F97B681B681A687B68F2
:104300001B6842F008021A607B681B681B68FB6030
:104310000120FEF7ADFB7B681B68FA681A607B68BA
:104320001B681A687B681B6842F004021A607B688D
:104330001B681B68FB600120FEF79AFB7B681B680B
:10434000FA681A60786800F070FD7B681B6803F5F6
:1043500080539B697A68126843F4005302F58052D7
:1043600093617B681B6803F580539B697A681268C8
:1043700043F0020302F5805293617B681B6803F5EA
:104380008053DB697A68126843F4D03343F0C10389
:1043900002F58052D3617B682322C3F88420002376
:1043A00000E0012318461037BD4680BD80B586B0B9
:1043B00000AF78607B68D3F88430232B70D17B68A2
:1043C0002322C3F884207B681B6803F58053DB69D4
:1043D0007A68126823F4D03323F0C10302F58052C7
:1043E000D3617B681B6803F580539B697A68126808
:1043F00023F4005302F5805293617B681B6803F538
:1044000080539B697A68126823F0020302F5805298
:1044100093617B681B681A687B681B6822F0040242
:104420001A607B681B681B683B610120FEF720FB5C
:104430007B681B683A691A60786800F0F6FC7B6854
:104440001B681A687B681B6822F008021A607B6888
:104450001B681B683B610120FEF70AFB7B681B6839
:104460003A691A6000237B610EE07B687A69123238
:1044700053F82230FB60FB685B6843F00042FB6846
:104480005A607B6901337B617B69032BEDD97B68C3
:1044900000229A657B681022C3F88420002300E084
:1044A000012318461837BD4680BD80B582B000AFE5
:1044B000786039603B68002B09D17B68D3F888307D
:1044C00043F001027B68C3F88820012345E07B6844
:1044D000D3F88430232B3FD13B685A6B7B68DA6377
:1044E00001223968786800F06FFF0346002B09D07D
:1044F0007B68D3F8883043F002027B68C3F88820D9
:1045000001232AE0BFF34F8F00BF7B689B6A5A1CD0
:104510007B689A627B689B6A032B04D97B689B6AE1
:104520001A1F7B689A627B681B6803F580535B697E
:1045300003F00403002B0DD07B681B6803F5805348
:104540001A46042353617B681B6803F580531A469F
:1045500000235360002300E0012318460837BD46BE
:1045600080BD80B588B000AF7860396000237B6182
:104570000023FB733B68002B09D17B68D3F888309C
:1045800043F001027B68C3F888200123A8E07B6820
:10459000D3F88430232B01D00123A1E07B68DB6DAD
:1045A000FB617B68FA69123253F82230BB617B6889
:1045B000DB6EC3F10403BB606AE0BB691B6803F4F4
:1045C0008073002B07D0BB699A697B689A67BB69C7
:1045D000DA697B685A67BB691B6803F40073002BB8
:1045E00003D17B68DB6F002B40D0BB691B6803F4F1
:1045F0000073002B05D07B6800221A667B680022BE
:104600005A667B685B693B61BB691B6803F4807316
:10461000002B0CD0BB691B681B0CC3F30D03043BC0
:104620003B61BB691A687B681A670123FB73BB692E
:104630009A68BB691A627B6803F17C007B6803F1AE
:104640008001BB691B6A1A463B699BB206F0A4FF56
:104650007B681B6E5A1C7B681A667B685A6E3B69C6
:104660001A447B685A66BB6900221A62FB690133EF
:10467000FB61FB69032B02D9FB69043BFB617B688F
:10468000FA69123253F82230BB617B6901337B61D6
:10469000BB691B68002B06DB7A69BB689A4202D2B1
:1046A000FB7B002B89D07B68DA6E7B691A447B68C0
:1046B000DA667B68DB6E002B02D0786800F014F8B5
:1046C0007B68FA69DA65FB7B012B08D17B68DA6FBE
:1046D0003B681A607B680022DA67002300E0012350
:1046E00018462037BD4680BD80B588B000AF7860E1
:1046F0000023FB600123FB747B689B6EFB617B687E
:10470000FA69123253F822307B617B68DB6EBB6141
:1047100040E07B691B6A002B12D107F10C0318469D
:1047200006F00AFFFB68002B02D10023FB7407E0B0
:10473000FB681A467B691A62FB681A467B699A60B5
:10474000FB7C002B26D07B689B6D002B03D17B6903
:104750001E4A5A6003E07B6944F2F4525A60BFF388
:104760005F8F00BF7B691B6843F000427B691A6062
:10477000FB690133FB61FB69032B02D9FB69043B35
:10478000FB617B68FA69123253F822307B61BB69A6
:10479000013BBB61BB69002B02D0FB7C002BB8D175
:1047A0007B68DB6EBA699A420CD07B681B6803F5A4
:1047B00080531A46002393607B68FA699A667B6887
:1047C000BA69DA6600BF2037BD4680BDF445008077
:1047D00080B586B000AF78607B681833BB60BB687B
:1047E0009B6A7B61BB68DB6A3B610123FB733FE033
:1047F0000123BB737B69013B7B61BA683B6904336E
:104800009B0013445B68002B06D13B69013303F026
:1048100003033B610023BB73BB7B002B28D07B6869
:10482000D9683A6913469B001344DB000B441B68AC
:10483000002B1BDBBA683B6904339B0013445B68A5
:10484000184606F0E9FEBA683B6904339B0013443E
:1048500000225A603B69013303F003033B61BB68EC
:104860007A699A62BB683A69DA6201E00023FB73F5
:104870007B69002B02D0FB7B002BB9D100231846AB
:104880001837BD4680BD000080B582B000AF7860AB
:104890007B681B6803F580535B6903F04003402B82
:1048A00012D17B681B6803F58053DB6903F040037A
:1048B000402B09D17B681B6803F580531A46504B87
:1048C0005361786806F000FE7B681B6803F580532F
:1048D0005B6903F00103012B13D17B681B6803F5AF
:1048E0008053DB6903F00103012B0AD17B681B684D
:1048F00003F580531A464FF001135361786806F0B0
:10490000F3FD7B681B6803F580535B6903F4004388
:10491000B3F5004F4CD17B681B6803F58053DB690E
:1049200003F40043B3F5004F42D17B68D3F88830DD
:1049300043F008027B68C3F888207B681B6803F596
:1049400080535B6903F40053B3F5005F1AD17B68B1
:104950001B6803F580535A692A4B13407A68C2F8E2
:104960008C307B681B6803F58053DB697A681268BA
:1049700023F4C03302F58052D3617B68E022C3F890
:10498000842012E07B681B6803F580535A6948F263
:10499000806313407A68C2F88C307B681B6803F52B
:1049A00080531A4648F280635361786806F0ACFD84
:1049B0007B681B689B6B03F00803082B0ED17B6898
:1049C0001B68DB6A03F060027B68C3F89420786898
:1049D00000F01CF87B680022C3F894200A4B5B6946
:1049E00003F40023002B06D0074B4FF400225A613A
:1049F000786800F015F800BF0837BD4680BD00BFDD
:104A00004000010000207E00003C014080B483B0E3
:104A100000AF786000BF0C37BD465DF8047B70477F
:104A200080B483B000AF786000BF0C37BD465DF83E
:104A3000047B704780B586B000AFF860B9607A60DB
:104A40003B60FB681B681B697B617B6903F01C038F
:104A50007B61BB68DB029BB27A6913437B617B6835
:104A60009B0103F4F8637A6913437B617B6923F04C
:104A700002037B617B6943F001037B61FB681B6878
:104A80007A691A61FDF7E8FF38610DE0FDF7E4FF90
:104A900002463B69D31AB3F5803F01D3012310E0EE
:104AA000FB681B681B697B617B6903F00103002BBA
:104AB000ECD1FB681B685B699BB21A463B681A60C5
:104AC000002318461837BD4680BD80B586B000AFBC
:104AD000F860B9607A603B60FB681B681B697B61AA
:104AE0007B6903F01C037B61BB68DB029BB27A69C4
:104AF00013437B617B689B0103F4F8637A6913437A
:104B00007B617B6943F002037B617B6943F00103B6
:104B10007B613B689AB2FB681B685A61FB681B6843
:104B20007A691A61FDF798FF38610DE0FDF794FF8F
:104B300002463B69D31AB3F5803F01D3012309E054
:104B4000FB681B681B697B617B6903F00103002B19
:104B5000ECD1002318461837BD4680BD80B483B021
:104B600000AF786039603B68002B01D10123D9E0A8
:104B70007B681B681B6803F01003002B14BF012324
:104B80000023DBB21A463B6883F828207B681B6849
:104B90001B6803F060023B685A627B681B681B68F5
:104BA00003F40073002B0CBF01230023DBB21A4671
:104BB0003B6883F820207B681B681B6803F4803304
:104BC000002B14BF01230023DBB21A463B68DA77BF
:104BD0007B681B681B6803F40053002B0CBF012388
:104BE0000023DBB21A463B689A777B681B681B6818
:104BF00003F48053002B14BF01230023DBB21A46B9
:104C00003B681A777B681B681B6803F400623B688B
:104C10009A617B681B681B6803F480423B685A6199
:104C20007B681B681B6803F48003002B0CBF012307
:104C30000023DBB21A463B685A747B681B681B680A
:104C400003F40003002B0CBF01230023DBB21A4640
:104C50003B681A747B681B681B6803F08003002B99
:104C600014BF01230023DBB21A463B68DA737B686A
:104C70001B681B6803F460223B689A607B681B68B2
:104C80001B6803F48063002B14BF01230023DBB2F5
:104C90001A463B681A717B681B689B6903F0020324
:104CA000002B14BF01230023DBB21A463B6883F8B4
:104CB00054207B681B689B6903F08003002B0CBFAA
:104CC00001230023DBB21A463B6883F84C207B6843
:104CD0001B689B6903F030023B681A657B681B68A0
:104CE0009B691B0C9AB23B689A647B681B689B6942
:104CF00003F00403002B14BF01230023DBB21A4688
:104D00003B6883F856207B681B689B6903F00803A7
:104D1000002B14BF01230023DBB21A463B6883F843
:104D20005520002318460C37BD465DF8047B7047BC
:104D300080B582B000AF786039603B68002B01D14C
:104D400001230BE07B68D3F88430102B05D1396840
:104D5000786800F08FF8002300E001231846083738
:104D6000BD4680BD80B584B000AF78607B681B68AD
:104D70001B69FB60FB6823F01C03FB6002F080FBF7
:104D8000B860BB681D4A934208D9BB681C4A93426D
:104D900004D8FB6843F00803FB6027E0BB68184AAF
:104DA000934208D9BB68174A934204D2FB6843F088
:104DB0000C03FB601AE0BB68124A934203D3BB6842
:104DC000114A934211D9BB680F4A934208D9BB6874
:104DD0000E4A934204D8FB6843F00403FB6005E0ED
:104DE000FB6843F01003FB6000E000BF7B681B68BA
:104DF000FA681A6100BF1037BD4680BDFF2C310133
:104E0000BF0E160200879303FFE0F5057FD1F0087F
:104E100080B483B000AF78607B68D3F88C301846DC
:104E20000C37BD465DF8047B704780B584B000AF99
:104E300078600023FB607B681B6803F580539B69E7
:104E40007A68126843F4801302F5805293617B689C
:104E50001B6803F580539B69FB600120FDF708FE8A
:104E60007B681A68FB6802F58052936100BF1037B7
:104E7000BD4680BD80B584B000AF786039607B6886
:104E80001B681B68FB60FA68514B1340FB603B6872
:104E90001B7C002B02D14FF4000200E000223B6893
:104EA0005B7C002B02D14FF4800300E000231A4307
:104EB0003B689B681A433B68DB7F1B041A433B68D3
:104EC0005B6913433A68927F002A02D14FF4005283
:104ED00000E000221A433B681B7F1B031A433B6818
:104EE0009B691A433B681B799B0213433A6892F80B
:104EF0002020002A02D14FF4007200E000221A4361
:104F00003B68DB7BDB011A433B685B6A1A433B6807
:104F100093F828301B011343FA681343FB607B6846
:104F20001B68FA681A607B681B681B68FB600120BD
:104F3000FDF79EFD7B681B68FA681A607B681B683A
:104F40009B69FB60FA684FF641731340FB603B6856
:104F50009B6C1B043A6892F84C20002A01D18022F5
:104F600000E000221A433B681B6D13433A6892F835
:104F70005520012A01D1082200E0002213433A689B
:104F800092F85620012A01D1042200E000221343A6
:104F90003A6892F85420012A01D1022200E000224E
:104FA0001343FA681343FB607B681B68FA689A61D5
:104FB0007B681B689B69FB600120FDF759FD7B68DE
:104FC0001B68FA689A6100BF1037BD4680BD00BFFC
:104FD0000F8120FF80B584B000AF786039607B68B6
:104FE0001B6803F580539B69FB60FA683D4B1340D7
:104FF000FB603B681B7B002B02D14FF0806200E01E
:1050000000223B685B7B5B0613433A68527F002AB1
:1050100002D14FF4801200E000221A433B689B7BD0
:105020005B051A433B685B691A433B681B7FDB01E6
:105030001A433B689B7F9B011A433B681B6A1A43D8
:105040003B6893F824309B001343FA681343FB60DA
:105050007B681B6803F580531A46FB6893617B6885
:105060001B6803F580539B69FB600120FDF700FD81
:105070007B681B6803F580531A46FB6893613B68A5
:105080001B795A063B689B681A433B689B691A4325
:105090003B681B691A433B6893F82530DB011A43D0
:1050A0003B689B6A9B001A433B681B6813437A6802
:1050B000126843F4000302F5805213607B681B689A
:1050C00003F580531B68FB600120FDF7D1FC7B6872
:1050D0001B6803F580531A46FB68136000BF103746
:1050E000BD4680BD233FDEF880B5A6B000AF786036
:1050F000012387F84430012387F845300023FB6300
:10510000002387F85330012387F85230002387F8B3
:105110005030012387F83830002387F854300023BB
:1051200087F843300023BB65002387F85C300023F9
:10513000FB67002387F880300023C7F88430002302
:1051400087F88A30002387F888304FF48043BB64A7
:105150004FF40063FB64002387F8893007F13403C0
:1051600019467868FFF786FE01233B7501237B759E
:10517000012387F825300123BB750023FB61002341
:1051800087F82430002387F826300023BB620123F0
:1051900087F82C3001233B734FF480333B614FF48D
:1051A00080033B624FF40053BB61012387F82D302D
:1051B00000233B630023BB6007F1080319467868AE
:1051C000FFF708FF00BF9837BD4680BD80B487B0A9
:1051D00000AFF860B9607A607B6805331B781B020A
:1051E0007A680432127813437B61BA68114B134416
:1051F0001A467B6913607B6803331B781A067B6849
:1052000002331B781B041A437B6801331B781B0293
:1052100013437A68127813437B61BA68064B1344D0
:105220001A467B69136000BF1C37BD465DF8047BDE
:10523000704700BF408002404480024080B485B087
:1052400000AF78600023FB603EE07B68D968FA68B5
:1052500013469B001344DB000B44BB60BB68002279
:105260001A60BB6800225A60BB6800229A60BB6863
:105270000022DA60B9687B68FA68063243F82210C7
:10528000BB681B6843F48012BB681A60FB68022B82
:105290000CD87B68D968FB685A1C13469B001344E2
:1052A000DB000B441A46BB68DA6004E07B68DB680D
:1052B0001A46BB68DA60BB681B6843F44002BB68EF
:1052C0001A60FB680133FB60FB68032BBDD97B6868
:1052D00000229A627B68DA687B681B6803F580535A
:1052E0001A6100BF1437BD465DF8047B704780B477
:1052F00085B000AF78600023FB6046E07B681969E9
:10530000FA6813469B001344DB000B44BB60BB6888
:1053100000221A60BB6800225A60BB6800229A60B3
:10532000BB680022DA60BB6800221A62BB680022F8
:105330005A62BB684FF000421A60BB6844F2F452F4
:105340005A60BB685B6823F00042BB685A60B9686A
:105350007B68FA68123243F82210FB68022B0CD8E3
:105360007B681969FB685A1C13469B001344DB00D9
:105370000B441A46BB68DA6004E07B681B691A4676
:10538000BB68DA60FB680133FB60FB68032BB5D9AF
:105390007B680022DA657B6800221A667B6800223F
:1053A0009A667B680022DA667B6800229A657B68D1
:1053B0001A697B681B6803F58053DA6000BF1437F5
:1053C000BD465DF8047B704780B48DB000AFF860D7
:1053D000B9607A60FB6818337B617B691B69FB628B
:1053E0007B691B693B6100237B627B69FA6A53F826
:1053F00022303B62BB689B68FB610023BB613B6A58
:105400001B6803F00043B3F1004F07D07A69FB6AD1
:1054100004339B0013445B68002B01D0022303E19B
:105420007B6A01337B62FB691B681A463B6A9A60A0
:105430003B6A5B6823F4FF5323F01F03FA69526849
:105440001A433B6A5A60BB681B6803F00103002BD8
:1054500008D03B6A1B6823F44002BB685B691A43AF
:105460003B6A1A60BB681B6803F02003002B08D05E
:105470003B6A1B6823F04062BB681B691A433B6AA6
:105480001A60BB681B6803F00403002B05D03B6A5D
:105490001B6843F080023B6A1A603B6A1B6843F05A
:1054A00080523B6A1A60BFF35F8F00BF3B6A1B6884
:1054B00043F000423B6A1A6084E03B6A1B6823F0B9
:1054C00000523B6A1A607B68002B06D03B6A1B685F
:1054D00043F080423B6A1A6005E03B6A1B6823F098
:1054E00080423B6A1A60FB6A0133FB62FB6A032B52
:1054F00002D9FB6A043BFB627B69FA6A53F82230EB
:105500003B623B6A1B6823F080523B6A1A603B6A2D
:105510001B6803F00043B3F1004F07D07A69FB6AC0
:1055200004339B0013445B68002B29D03B69FB626A
:105530007B69FA6A53F822303B620023BB6219E0B0
:10554000BFF35F8F00BF3B6A1B6823F000423B6ADA
:105550001A60FB6A0133FB62FB6A032B02D9FB6A08
:10556000043BFB627B69FA6A53F822303B62BB6AF8
:105570000133BB62BA6A7B6A9A42E1D3022353E0E9
:105580007B6A01337B62FB699B68FB61FB691B687B
:105590001A463B6A9A603B6A5B6823F4FF5323F028
:1055A0001F03FA6952681A433B6A5A60BB690133A8
:1055B000BB61BFF35F8F00BF3B6A1B6843F00042D3
:1055C0003B6A1A60FB699B68002B7FF476AF7B68AF
:1055D000002B06D03B6A1B6843F080423B6A1A608E
:1055E00005E03B6A1B6823F080423B6A1A603B6A15
:1055F0001B6843F000523B6A1A607B695A6A7969FA
:10560000FB6A04339B000B445A607B69FA6A1A6197
:1056100072B600BF7B699A6ABB6913445A1C7B69E6
:105620009A6262B600BF002318463437BD465DF863
:10563000047B704780B489B000AF78603960002384
:105640007B6100233B610023BB610023FB6177E1A9
:105650000122FB6902FA03F37B613B681B687A69EC
:1056600013403B613A697B699A4240F066813B682E
:105670005B6803F00303012B05D03B685B6803F014
:105680000303022B30D17B689B68BB61FB695B0025
:10569000032202FA03F3DB43BA691340BB613B68A0
:1056A000DA68FB695B0002FA03F3BA691343BB6172
:1056B0007B68BA699A607B685B68BB610122FB69A1
:1056C00002FA03F3DB43BA691340BB613B685B68D2
:1056D0001B0903F00102FB6902FA03F3BA691343E1
:1056E000BB617B68BA695A603B685B6803F003037F
:1056F000032B17D07B68DB68BB61FB695B0003226F
:1057000002FA03F3DB43BA691340BB613B689A6852
:10571000FB695B0002FA03F3BA691343BB617B6860
:10572000BA69DA603B685B6803F00303022B23D19C
:10573000FB69DA087B68083253F82230BB61FB69E9
:1057400003F007039B000F2202FA03F3DB43BA695D
:105750001340BB613B681A69FB6903F007039B00B8
:1057600002FA03F3BA691343BB61FB69DA087B6889
:105770000832B96943F822107B681B68BB61FB697A
:105780005B00032202FA03F3DB43BA691340BB61F7
:105790003B685B6803F00302FB695B0002FA03F3FA
:1057A000BA691343BB617B68BA691A603B685B687E
:1057B00003F44033002B00F0C0800023FB60664BF5
:1057C0005B6C654A43F480435364634B5B6C03F446
:1057D0008043FB60FB68614AFB699B08023352F817
:1057E0002330BB61FB6903F003039B000F2202FA25
:1057F00003F3DB43BA691340BB617B68584A9342A9
:1058000037D07B68574A934231D07B68564A9342DF
:105810002BD07B68554A934225D07B68544A9342EB
:105820001FD07B68534A934219D07B68524A9342F7
:1058300013D07B68514A93420DD07B68504A934203
:1058400007D07B684F4A934201D1092312E00A2313
:1058500010E008230EE007230CE006230AE00523EE
:1058600008E0042306E0032304E0022302E001230E
:1058700000E00023FA6902F0030292009340BA6943
:105880001343BB613549FB699B080233BA6941F890
:1058900023203D4B9B68BB613B69DB43BA691340E6
:1058A000BB613B685B6803F48013002B03D0BA69CB
:1058B0003B691343BB61344ABB699360324BDB687D
:1058C000BB613B69DB43BA691340BB613B685B6802
:1058D00003F40013002B03D0BA693B691343BB6187
:1058E000294ABB69D360284B5B68BB613B69DB43DA
:1058F000BA691340BB613B685B6803F40033002B5B
:1059000003D0BA693B691343BB611F4ABB6953604B
:105910001D4B1B68BB613B69DB43BA691340BB612C
:105920003B685B6803F48033002B03D0BA693B69A2
:105930001343BB61144ABB691360FB690133FB610C
:10594000FB690F2B7FF684AE00BF00BF2437BD4636
:105950005DF8047B704700BF00380240003801400A
:10596000000002400004024000080240000C024017
:10597000001002400014024000180240001C0240C7
:105980000020024000240240003C014080B485B069
:1059900000AF78600B467B807B681A697B88134078
:1059A000002B02D00123FB7301E00023FB73FB7B80
:1059B00018461437BD465DF8047B704780B483B049
:1059C00000AF78600B467B8013467B707B78002BA2
:1059D00003D07A887B689A6103E07B881A047B682D
:1059E0009A6100BF0C37BD465DF8047B704780B4F8
:1059F00085B000AF78600B467B807B685B69FB609D
:105A00007A88FB6813401A04FB68D9437B880B40F3
:105A10001A437B689A6100BF1437BD465DF8047B6A
:105A20007047000080B582B000AF0346FB80084B92
:105A30005A69FB881340002B06D0054AFB88536146
:105A4000FB881846FBF7ACFC00BF0837BD4680BD9D
:105A5000003C014080B584B000AF78607B68002BCB
:105A600001D101232BE17B6893F83D30DBB2002BA1
:105A700006D17B68002283F83C207868FBF738FF6A
:105A80007B68242283F83D207B681B681A687B684A
:105A90001B6822F001021A607B681B681A687B6829
:105AA0001B6842F400421A607B681B681A687B68B6
:105AB0001B6822F400421A6001F0EEFCF8607B687B
:105AC0005B68814A934207D8FB68804A934294BF3F
:105AD00001230023DBB206E0FB687D4A934294BFBA
